{
  "contractName": "Faucet",
  "abi": [
    {
      "inputs": [
        {
          "internalType": "address",
          "name": "tokenAddress",
          "type": "address"
        }
      ],
      "stateMutability": "nonpayable",
      "type": "constructor"
    },
    {
      "inputs": [],
      "name": "token",
      "outputs": [
        {
          "internalType": "contract IERC20",
          "name": "",
          "type": "address"
        }
      ],
      "stateMutability": "view",
      "type": "function",
      "constant": true
    },
    {
      "inputs": [],
      "name": "giveTokens",
      "outputs": [],
      "stateMutability": "nonpayable",
      "type": "function"
    }
  ],
  "bytecode": "0x608060405234801561001057600080fd5b5060405161091a38038061091a8339818101604052810190610032919061008d565b806000806101000a81548173ffffffffffffffffffffffffffffffffffffffff021916908373ffffffffffffffffffffffffffffffffffffffff16021790555050610108565b600081519050610087816100f1565b92915050565b6000602082840312156100a3576100a26100ec565b5b60006100b184828501610078565b91505092915050565b60006100c5826100cc565b9050919050565b600073ffffffffffffffffffffffffffffffffffffffff82169050919050565b600080fd5b6100fa816100ba565b811461010557600080fd5b50565b610803806101176000396000f3fe608060405234801561001057600080fd5b50600436106100365760003560e01c8063ae909cff1461003b578063fc0c546a14610045575b600080fd5b610043610063565b005b61004d6100c0565b60405161005a9190610559565b60405180910390f35b600069d3c21bcecceda100000090506100bd338260008054906101000a900473ffffffffffffffffffffffffffffffffffffffff1673ffffffffffffffffffffffffffffffffffffffff166100e49092919063ffffffff16565b50565b60008054906101000a900473ffffffffffffffffffffffffffffffffffffffff1681565b6101658363a9059cbb60e01b8484604051602401610103929190610530565b604051602081830303815290604052907bffffffffffffffffffffffffffffffffffffffffffffffffffffffff19166020820180517bffffffffffffffffffffffffffffffffffffffffffffffffffffffff838183161783525050505061016a565b505050565b60006101cc826040518060400160405280602081526020017f5361666545524332303a206c6f772d6c6576656c2063616c6c206661696c65648152508573ffffffffffffffffffffffffffffffffffffffff166102319092919063ffffffff16565b905060008151111561022c57808060200190518101906101ec91906103ec565b61022b576040517f08c379a0000000000000000000000000000000000000000000000000000000008152600401610222906105d6565b60405180910390fd5b5b505050565b60606102408484600085610249565b90509392505050565b60608247101561028e576040517f08c379a000000000000000000000000000000000000000000000000000000000815260040161028590610596565b60405180910390fd5b6102978561035d565b6102d6576040517f08c379a00000000000000000000000000000000000000000000000000000000081526004016102cd906105b6565b60405180910390fd5b6000808673ffffffffffffffffffffffffffffffffffffffff1685876040516102ff9190610519565b60006040518083038185875af1925050503d806000811461033c576040519150601f19603f3d011682016040523d82523d6000602084013e610341565b606091505b5091509150610351828286610370565b92505050949350505050565b600080823b905060008111915050919050565b60608315610380578290506103d0565b6000835111156103935782518084602001fd5b816040517f08c379a00000000000000000000000000000000000000000000000000000000081526004016103c79190610574565b60405180910390fd5b9392505050565b6000815190506103e6816107b6565b92915050565b600060208284031215610402576104016106d9565b5b6000610410848285016103d7565b91505092915050565b61042281610628565b82525050565b6000610433826105f6565b61043d818561060c565b935061044d8185602086016106a6565b80840191505092915050565b61046281610670565b82525050565b600061047382610601565b61047d8185610617565b935061048d8185602086016106a6565b610496816106de565b840191505092915050565b60006104ae602683610617565b91506104b9826106ef565b604082019050919050565b60006104d1601d83610617565b91506104dc8261073e565b602082019050919050565b60006104f4602a83610617565b91506104ff82610767565b604082019050919050565b61051381610666565b82525050565b60006105258284610428565b915081905092915050565b60006040820190506105456000830185610419565b610552602083018461050a565b9392505050565b600060208201905061056e6000830184610459565b92915050565b6000602082019050818103600083015261058e8184610468565b905092915050565b600060208201905081810360008301526105af816104a1565b9050919050565b600060208201905081810360008301526105cf816104c4565b9050919050565b600060208201905081810360008301526105ef816104e7565b9050919050565b600081519050919050565b600081519050919050565b600081905092915050565b600082825260208201905092915050565b600061063382610646565b9050919050565b60008115159050919050565b600073ffffffffffffffffffffffffffffffffffffffff82169050919050565b6000819050919050565b600061067b82610682565b9050919050565b600061068d82610694565b9050919050565b600061069f82610646565b9050919050565b60005b838110156106c45780820151818401526020810190506106a9565b838111156106d3576000848401525b50505050565b600080fd5b6000601f19601f8301169050919050565b7f416464726573733a20696e73756666696369656e742062616c616e636520666f60008201527f722063616c6c0000000000000000000000000000000000000000000000000000602082015250565b7f416464726573733a2063616c6c20746f206e6f6e2d636f6e7472616374000000600082015250565b7f5361666545524332303a204552433230206f7065726174696f6e20646964206e60008201527f6f74207375636365656400000000000000000000000000000000000000000000602082015250565b6107bf8161063a565b81146107ca57600080fd5b5056fea26469706673582212205e25bb444691693d16469f81459a4ff789b5aa02459bef7b9819538ba798b5a864736f6c63430008070033",
  "immutableReferences": {},
  "source": "// SPDX-License-Identifier: UNLICENSED\"\r\n\r\npragma solidity ^0.8.7;\r\n\r\nimport \"@openzeppelin/contracts/token/ERC20/IERC20.sol\";\r\nimport \"@openzeppelin/contracts/token/ERC20/utils/SafeERC20.sol\";\r\n\r\ncontract Faucet {\r\n\r\n    using SafeERC20 for IERC20;\r\n\r\n    IERC20 public token;\r\n\r\n    constructor(address tokenAddress) {\r\n        token = IERC20(tokenAddress);\r\n    }\r\n\r\n    function giveTokens() external {\r\n        uint requiredToken_toWei = 1000000 * 10 ** 18;\r\n        \r\n        token.safeTransfer(msg.sender, requiredToken_toWei);\r\n    }\r\n}",
  "sourcePath": "C:\\Users\\Jake\\Desktop\\Final Project\\blockchain-developer-bootcamp-final-project\\contracts\\Faucet.sol",
  "compiler": {
    "name": "solc",
    "version": "0.8.7+commit.e28d00a7.Emscripten.clang"
  },
  "schemaVersion": "3.4.3",
  "updatedAt": "2022-01-14T02:19:21.942Z",
  "networkType": "ethereum",
  "devdoc": {
    "kind": "dev",
    "methods": {},
    "version": 1
  },
  "userdoc": {
    "kind": "user",
    "methods": {},
    "version": 1
  }
}