{
  "contractName": "PrizeDrawContract",
  "abi": [
    {
      "inputs": [
        {
          "internalType": "address",
          "name": "tokenAddress",
          "type": "address"
        }
      ],
      "stateMutability": "nonpayable",
      "type": "constructor"
    },
    {
      "anonymous": false,
      "inputs": [
        {
          "indexed": false,
          "internalType": "address",
          "name": "player",
          "type": "address"
        },
        {
          "indexed": false,
          "internalType": "uint256",
          "name": "ticketAmount",
          "type": "uint256"
        },
        {
          "indexed": false,
          "internalType": "uint256",
          "name": "ticketPrice",
          "type": "uint256"
        },
        {
          "indexed": false,
          "internalType": "uint256",
          "name": "requiredToken",
          "type": "uint256"
        },
        {
          "indexed": false,
          "internalType": "bool",
          "name": "prevBuyer",
          "type": "bool"
        }
      ],
      "name": "BuyEvent",
      "type": "event"
    },
    {
      "anonymous": false,
      "inputs": [
        {
          "indexed": false,
          "internalType": "uint256",
          "name": "balance",
          "type": "uint256"
        },
        {
          "indexed": false,
          "internalType": "uint256",
          "name": "id",
          "type": "uint256"
        },
        {
          "indexed": false,
          "internalType": "uint256",
          "name": "tickets",
          "type": "uint256"
        },
        {
          "indexed": false,
          "internalType": "uint256",
          "name": "players",
          "type": "uint256"
        }
      ],
      "name": "CancelEvent",
      "type": "event"
    },
    {
      "anonymous": false,
      "inputs": [
        {
          "indexed": false,
          "internalType": "uint256",
          "name": "randomNumber",
          "type": "uint256"
        }
      ],
      "name": "NumberReceived",
      "type": "event"
    },
    {
      "anonymous": false,
      "inputs": [
        {
          "indexed": true,
          "internalType": "address",
          "name": "previousOwner",
          "type": "address"
        },
        {
          "indexed": true,
          "internalType": "address",
          "name": "newOwner",
          "type": "address"
        }
      ],
      "name": "OwnershipTransferred",
      "type": "event"
    },
    {
      "anonymous": false,
      "inputs": [
        {
          "indexed": false,
          "internalType": "address payable",
          "name": "winner",
          "type": "address"
        },
        {
          "indexed": false,
          "internalType": "uint256",
          "name": "ticket",
          "type": "uint256"
        },
        {
          "indexed": false,
          "internalType": "uint256",
          "name": "winnings",
          "type": "uint256"
        },
        {
          "indexed": false,
          "internalType": "uint256",
          "name": "random",
          "type": "uint256"
        }
      ],
      "name": "WinnerEvent",
      "type": "event"
    },
    {
      "inputs": [],
      "name": "currentState",
      "outputs": [
        {
          "internalType": "enum PrizeDrawContract.State",
          "name": "",
          "type": "uint8"
        }
      ],
      "stateMutability": "view",
      "type": "function",
      "constant": true
    },
    {
      "inputs": [],
      "name": "owner",
      "outputs": [
        {
          "internalType": "address",
          "name": "",
          "type": "address"
        }
      ],
      "stateMutability": "view",
      "type": "function",
      "constant": true
    },
    {
      "inputs": [],
      "name": "prizeDrawToken",
      "outputs": [
        {
          "internalType": "contract IERC20",
          "name": "",
          "type": "address"
        }
      ],
      "stateMutability": "view",
      "type": "function",
      "constant": true
    },
    {
      "inputs": [
        {
          "internalType": "bytes32",
          "name": "requestId",
          "type": "bytes32"
        },
        {
          "internalType": "uint256",
          "name": "randomness",
          "type": "uint256"
        }
      ],
      "name": "rawFulfillRandomness",
      "outputs": [],
      "stateMutability": "nonpayable",
      "type": "function"
    },
    {
      "inputs": [],
      "name": "renounceOwnership",
      "outputs": [],
      "stateMutability": "nonpayable",
      "type": "function"
    },
    {
      "inputs": [
        {
          "internalType": "address",
          "name": "newOwner",
          "type": "address"
        }
      ],
      "name": "transferOwnership",
      "outputs": [],
      "stateMutability": "nonpayable",
      "type": "function"
    },
    {
      "inputs": [],
      "name": "getRandomNumber",
      "outputs": [
        {
          "internalType": "bytes32",
          "name": "requestId",
          "type": "bytes32"
        }
      ],
      "stateMutability": "nonpayable",
      "type": "function"
    },
    {
      "inputs": [],
      "name": "createPrizeDraw",
      "outputs": [],
      "stateMutability": "nonpayable",
      "type": "function"
    },
    {
      "inputs": [
        {
          "internalType": "uint256",
          "name": "_ticketPrice",
          "type": "uint256"
        }
      ],
      "name": "setTicketPrice",
      "outputs": [],
      "stateMutability": "nonpayable",
      "type": "function"
    },
    {
      "inputs": [
        {
          "internalType": "string",
          "name": "date",
          "type": "string"
        }
      ],
      "name": "saveDate",
      "outputs": [],
      "stateMutability": "nonpayable",
      "type": "function"
    },
    {
      "inputs": [],
      "name": "startPrizeDraw",
      "outputs": [],
      "stateMutability": "nonpayable",
      "type": "function"
    },
    {
      "inputs": [
        {
          "internalType": "uint256",
          "name": "ticketAmount",
          "type": "uint256"
        }
      ],
      "name": "buyTickets",
      "outputs": [
        {
          "internalType": "bool",
          "name": "",
          "type": "bool"
        }
      ],
      "stateMutability": "nonpayable",
      "type": "function"
    },
    {
      "inputs": [],
      "name": "pickWinner",
      "outputs": [],
      "stateMutability": "nonpayable",
      "type": "function"
    },
    {
      "inputs": [],
      "name": "cancelPrizeDraw",
      "outputs": [],
      "stateMutability": "nonpayable",
      "type": "function"
    },
    {
      "inputs": [
        {
          "internalType": "address",
          "name": "newOwner",
          "type": "address"
        }
      ],
      "name": "_transferOwnership",
      "outputs": [],
      "stateMutability": "nonpayable",
      "type": "function"
    },
    {
      "inputs": [],
      "name": "getTotalPrize",
      "outputs": [
        {
          "internalType": "uint256",
          "name": "",
          "type": "uint256"
        }
      ],
      "stateMutability": "view",
      "type": "function",
      "constant": true
    },
    {
      "inputs": [],
      "name": "withdrawLink",
      "outputs": [],
      "stateMutability": "nonpayable",
      "type": "function"
    },
    {
      "inputs": [],
      "name": "getRemainingLINK",
      "outputs": [
        {
          "internalType": "uint256",
          "name": "",
          "type": "uint256"
        }
      ],
      "stateMutability": "view",
      "type": "function",
      "constant": true
    },
    {
      "inputs": [],
      "name": "getTicketPrice",
      "outputs": [
        {
          "internalType": "uint256",
          "name": "",
          "type": "uint256"
        }
      ],
      "stateMutability": "view",
      "type": "function",
      "constant": true
    },
    {
      "inputs": [],
      "name": "getPrizeDrawPlayers",
      "outputs": [
        {
          "internalType": "uint256",
          "name": "",
          "type": "uint256"
        }
      ],
      "stateMutability": "view",
      "type": "function",
      "constant": true
    },
    {
      "inputs": [],
      "name": "getPrizeDrawTickets",
      "outputs": [
        {
          "internalType": "uint256",
          "name": "",
          "type": "uint256"
        }
      ],
      "stateMutability": "view",
      "type": "function",
      "constant": true
    },
    {
      "inputs": [],
      "name": "getPrizeDrawDate",
      "outputs": [
        {
          "internalType": "string",
          "name": "",
          "type": "string"
        }
      ],
      "stateMutability": "view",
      "type": "function",
      "constant": true
    },
    {
      "inputs": [],
      "name": "getPreviousWinner",
      "outputs": [
        {
          "internalType": "address",
          "name": "",
          "type": "address"
        }
      ],
      "stateMutability": "view",
      "type": "function",
      "constant": true
    },
    {
      "inputs": [],
      "name": "getPreviousPrize",
      "outputs": [
        {
          "internalType": "uint256",
          "name": "",
          "type": "uint256"
        }
      ],
      "stateMutability": "view",
      "type": "function",
      "constant": true
    },
    {
      "inputs": [
        {
          "internalType": "address",
          "name": "player",
          "type": "address"
        }
      ],
      "name": "getTicketsPerPlayer",
      "outputs": [
        {
          "internalType": "uint256",
          "name": "",
          "type": "uint256"
        }
      ],
      "stateMutability": "view",
      "type": "function",
      "constant": true
    },
    {
      "inputs": [],
      "name": "pickWinnerTest",
      "outputs": [],
      "stateMutability": "nonpayable",
      "type": "function"
    },
    {
      "inputs": [],
      "name": "getPrevPrizeDraw",
      "outputs": [
        {
          "internalType": "uint256",
          "name": "",
          "type": "uint256"
        }
      ],
      "stateMutability": "view",
      "type": "function",
      "constant": true
    },
    {
      "inputs": [],
      "name": "getPrizeDrawCount",
      "outputs": [
        {
          "internalType": "uint256",
          "name": "",
          "type": "uint256"
        }
      ],
      "stateMutability": "view",
      "type": "function",
      "constant": true
    },
    {
      "inputs": [
        {
          "internalType": "uint256",
          "name": "ticketNumber",
          "type": "uint256"
        }
      ],
      "name": "getTicketAddress",
      "outputs": [
        {
          "internalType": "address",
          "name": "",
          "type": "address"
        }
      ],
      "stateMutability": "view",
      "type": "function",
      "constant": true
    },
    {
      "inputs": [],
      "name": "getWinningTicket",
      "outputs": [
        {
          "internalType": "uint256",
          "name": "",
          "type": "uint256"
        }
      ],
      "stateMutability": "view",
      "type": "function",
      "constant": true
    },
    {
      "inputs": [],
      "name": "getWinnerAddress",
      "outputs": [
        {
          "internalType": "address payable",
          "name": "",
          "type": "address"
        }
      ],
      "stateMutability": "view",
      "type": "function",
      "constant": true
    },
    {
      "inputs": [
        {
          "internalType": "address",
          "name": "player",
          "type": "address"
        }
      ],
      "name": "getTokensSpentPerPlayer",
      "outputs": [
        {
          "internalType": "uint256",
          "name": "",
          "type": "uint256"
        }
      ],
      "stateMutability": "view",
      "type": "function",
      "constant": true
    }
  ],
  "bytecode": "0x60c0604052600060035560006004556000600560006101000a81548160ff02191690836001811115620000375762000036620002f5565b5b02179055503480156200004957600080fd5b506040516200443e3803806200443e83398181016040528101906200006f91906200028f565b73dd3782915140c8f3b190b5d67eac6dc5760c46e973a36085f69e2889c224210f603d836748e7dc00888173ffffffffffffffffffffffffffffffffffffffff1660a08173ffffffffffffffffffffffffffffffffffffffff1660601b815250508073ffffffffffffffffffffffffffffffffffffffff1660808173ffffffffffffffffffffffffffffffffffffffff1660601b815250505050620001296200011d620001aa60201b60201c565b620001b260201b60201c565b7f6c3699283bda56ad74f6b855546325b68d482e983852a7a82979cc4807b641f460001b60068190555067016345785d8a000060078190555080600960006101000a81548173ffffffffffffffffffffffffffffffffffffffff021916908373ffffffffffffffffffffffffffffffffffffffff1602179055505062000343565b600033905090565b6000600160009054906101000a900473ffffffffffffffffffffffffffffffffffffffff16905081600160006101000a81548173ffffffffffffffffffffffffffffffffffffffff021916908373ffffffffffffffffffffffffffffffffffffffff1602179055508173ffffffffffffffffffffffffffffffffffffffff168173ffffffffffffffffffffffffffffffffffffffff167f8be0079c531659141344cd1fd0a4f28419497f9722a3daafe3b4186f6b6457e060405160405180910390a35050565b600081519050620002898162000329565b92915050565b600060208284031215620002a857620002a762000324565b5b6000620002b88482850162000278565b91505092915050565b6000620002ce82620002d5565b9050919050565b600073ffffffffffffffffffffffffffffffffffffffff82169050919050565b7f4e487b7100000000000000000000000000000000000000000000000000000000600052602160045260246000fd5b600080fd5b6200033481620002c1565b81146200034057600080fd5b50565b60805160601c60a05160601c6140ac620003926000396000818161173d0152612ace0152600081816114b2015281816114f60152818161168f015281816124df0152612a9201526140ac6000f3fe608060405234801561001057600080fd5b50600436106101f05760003560e01c80639a6837a71161010f578063dae4d705116100a2578063e1a5bc4711610071578063e1a5bc47146104df578063f2fde38b146104fd578063f58f5a4514610519578063f757535614610537576101f0565b8063dae4d70514610469578063db3c112414610473578063dbdff2c1146104a3578063dc3f6ec3146104c1576101f0565b8063bf8ba9ff116100de578063bf8ba9ff14610409578063cd7688c614610425578063d20bf8161461042f578063d29d44ee1461044d576101f0565b80639a6837a7146103b9578063adeaa851146103d7578063aeb69e4a146103f5578063bb52850c146103ff576101f0565b80635d495aea116101875780638da5cb5b116101565780638da5cb5b146103575780638dc654a2146103755780638f0065271461037f57806394985ddd1461039d576101f0565b80635d495aea14610307578063715018a614610311578063735e91261461031b57806387bb7ae014610339576101f0565b806322c69621116101c357806322c696211461026b578063288714be1461029b5780632f366637146102b95780633ea4d5d8146102e9576101f0565b80630c3f6acf146101f557806310a37c2614610213578063159816501461023157806319cc86bd1461024d575b600080fd5b6101fd610567565b60405161020a91906136ce565b60405180910390f35b61021b61057a565b60405161022891906134be565b60405180910390f35b61024b60048036038101906102469190613128565b610636565b005b6102556107d3565b604051610262919061388b565b60405180910390f35b61028560048036038101906102809190613045565b610859565b604051610292919061388b565b60405180910390f35b6102a36108b8565b6040516102b091906134a3565b60405180910390f35b6102d360048036038101906102ce9190613128565b6108f8565b6040516102e0919061360f565b60405180910390f35b6102f1610dcd565b6040516102fe919061388b565b60405180910390f35b61030f610ded565b005b6103196112ba565b005b610323611342565b60405161033091906136e9565b60405180910390f35b6103416113ea565b60405161034e919061388b565b60405180910390f35b61035f61140a565b60405161036c91906134a3565b60405180910390f35b61037d611434565b005b61038761160f565b604051610394919061388b565b60405180910390f35b6103b760048036038101906103b2919061309f565b61173b565b005b6103c16117d7565b6040516103ce919061388b565b60405180910390f35b6103df6117f7565b6040516103ec919061388b565b60405180910390f35b6103fd6118a9565b005b610407611a25565b005b610423600480360381019061041e91906130df565b611dd6565b005b61042d611e82565b005b6104376121b1565b604051610444919061388b565b60405180910390f35b61046760048036038101906104629190613045565b61224d565b005b6104716122d5565b005b61048d60048036038101906104889190613045565b6123fd565b60405161049a919061388b565b60405180910390f35b6104ab61245c565b6040516104b8919061362a565b60405180910390f35b6104c96125da565b6040516104d6919061388b565b60405180910390f35b6104e7612660565b6040516104f491906136b3565b60405180910390f35b61051760048036038101906105129190613045565b612686565b005b61052161277e565b60405161052e919061388b565b60405180910390f35b610551600480360381019061054c9190613128565b61279e565b60405161055e91906134a3565b60405180910390f35b600560009054906101000a900460ff1681565b600061058461286d565b73ffffffffffffffffffffffffffffffffffffffff166105a261140a565b73ffffffffffffffffffffffffffffffffffffffff16146105f8576040517f08c379a00000000000000000000000000000000000000000000000000000000081526004016105ef906137cb565b60405180910390fd5b60026000600354815260200190815260200160002060080160009054906101000a900473ffffffffffffffffffffffffffffffffffffffff16905090565b61063e61286d565b73ffffffffffffffffffffffffffffffffffffffff1661065c61140a565b73ffffffffffffffffffffffffffffffffffffffff16146106b2576040517f08c379a00000000000000000000000000000000000000000000000000000000081526004016106a9906137cb565b60405180910390fd5b600354600454106106f8576040517f08c379a00000000000000000000000000000000000000000000000000000000081526004016106ef906137ab565b60405180910390fd5b6000600560009054906101000a900460ff16600181111561071c5761071b613c84565b5b81600181111561072f5761072e613c84565b5b1461076f576040517f08c379a00000000000000000000000000000000000000000000000000000000081526004016107669061378b565b60405180910390fd5b600082116107b2576040517f08c379a00000000000000000000000000000000000000000000000000000000081526004016107a99061380b565b60405180910390fd5b81600260006003548152602001908152602001600020600001819055505050565b60006107dd61286d565b73ffffffffffffffffffffffffffffffffffffffff166107fb61140a565b73ffffffffffffffffffffffffffffffffffffffff1614610851576040517f08c379a0000000000000000000000000000000000000000000000000000000008152600401610848906137cb565b60405180910390fd5b600454905090565b600060026000600354815260200190815260200160002060020160008373ffffffffffffffffffffffffffffffffffffffff1673ffffffffffffffffffffffffffffffffffffffff168152602001908152602001600020549050919050565b600060026000600454815260200190815260200160002060080160009054906101000a900473ffffffffffffffffffffffffffffffffffffffff16905090565b60006001600560009054906101000a900460ff16600181111561091e5761091d613c84565b5b81600181111561093157610930613c84565b5b14610971576040517f08c379a00000000000000000000000000000000000000000000000000000000081526004016109689061378b565b60405180910390fd5b600060026000600354815260200190815260200160002060000154116109cc576040517f08c379a00000000000000000000000000000000000000000000000000000000081526004016109c39061376b565b60405180910390fd5b60008311610a0f576040517f08c379a0000000000000000000000000000000000000000000000000000000008152600401610a06906137eb565b60405180910390fd5b6000808460026000600354815260200190815260200160002060000154610a3691906139da565b90506000670de0b6b3a764000082610a4e91906139da565b9050610a9f333083600960009054906101000a900473ffffffffffffffffffffffffffffffffffffffff1673ffffffffffffffffffffffffffffffffffffffff16612875909392919063ffffffff16565b600060026000600354815260200190815260200160002060020160003373ffffffffffffffffffffffffffffffffffffffff1673ffffffffffffffffffffffffffffffffffffffff168152602001908152602001600020541415610bb0576002600060035481526020019081526020016000206006016000815480929190610b2690613b98565b919050555033600260006003548152602001908152602001600020600401600060026000600354815260200190815260200160002060060154815260200190815260200160002060006101000a81548173ffffffffffffffffffffffffffffffffffffffff021916908373ffffffffffffffffffffffffffffffffffffffff160217905550610bb5565b600192505b8560026000600354815260200190815260200160002060020160003373ffffffffffffffffffffffffffffffffffffffff1673ffffffffffffffffffffffffffffffffffffffff1681526020019081526020016000206000828254610c1a9190613984565b925050819055508060026000600354815260200190815260200160002060030160003373ffffffffffffffffffffffffffffffffffffffff1673ffffffffffffffffffffffffffffffffffffffff1681526020019081526020016000206000828254610c869190613984565b925050819055506000600190505b868111610d39573360026000600354815260200190815260200160002060010160008360026000600354815260200190815260200160002060050154610cda9190613984565b815260200190815260200160002060006101000a81548173ffffffffffffffffffffffffffffffffffffffff021916908373ffffffffffffffffffffffffffffffffffffffff1602179055508080610d3190613b98565b915050610c94565b50856002600060035481526020019081526020016000206005016000828254610d629190613984565b925050819055507f80ce4acca91a7d417dc6a494c1d28b45a04e0b66c4acbf2dddedc8c5c6eca8e23387600260006003548152602001908152602001600020600001548487604051610db89594939291906135bc565b60405180910390a16001945050505050919050565b600060026000600354815260200190815260200160002060050154905090565b610df561286d565b73ffffffffffffffffffffffffffffffffffffffff16610e1361140a565b73ffffffffffffffffffffffffffffffffffffffff1614610e69576040517f08c379a0000000000000000000000000000000000000000000000000000000008152600401610e60906137cb565b60405180910390fd5b6001600560009054906101000a900460ff166001811115610e8d57610e8c613c84565b5b816001811115610ea057610e9f613c84565b5b14610ee0576040517f08c379a0000000000000000000000000000000000000000000000000000000008152600401610ed79061378b565b60405180910390fd5b600160026000600354815260200190815260200160002060050154600854610f089190613bf5565b610f129190613984565b60026000600354815260200190815260200160002060070181905550600960009054906101000a900473ffffffffffffffffffffffffffffffffffffffff1673ffffffffffffffffffffffffffffffffffffffff166370a08231306040518263ffffffff1660e01b8152600401610f8991906134a3565b60206040518083038186803b158015610fa157600080fd5b505afa158015610fb5573d6000803e3d6000fd5b505050506040513d601f19601f82011682018060405250810190610fd99190613155565b600260006003548152602001908152602001600020600a0181905550600260006003548152602001908152602001600020600101600060026000600354815260200190815260200160002060070154815260200190815260200160002060009054906101000a900473ffffffffffffffffffffffffffffffffffffffff1660026000600354815260200190815260200160002060080160006101000a81548173ffffffffffffffffffffffffffffffffffffffff021916908373ffffffffffffffffffffffffffffffffffffffff1602179055506000600560006101000a81548160ff021916908360018111156110d3576110d2613c84565b5b021790555060035460048190555061121060026000600354815260200190815260200160002060080160009054906101000a900473ffffffffffffffffffffffffffffffffffffffff16600960009054906101000a900473ffffffffffffffffffffffffffffffffffffffff1673ffffffffffffffffffffffffffffffffffffffff166370a08231306040518263ffffffff1660e01b815260040161117891906134a3565b60206040518083038186803b15801561119057600080fd5b505afa1580156111a4573d6000803e3d6000fd5b505050506040513d601f19601f820116820180604052508101906111c89190613155565b600960009054906101000a900473ffffffffffffffffffffffffffffffffffffffff1673ffffffffffffffffffffffffffffffffffffffff166128fe9092919063ffffffff16565b7ffa400ad96c53dab1174c83aa427fc293996de34d84cb5568192eae8a4434fc7860026000600354815260200190815260200160002060080160009054906101000a900473ffffffffffffffffffffffffffffffffffffffff1660026000600354815260200190815260200160002060070154600260006003548152602001908152602001600020600a01546008546040516112af94939291906134d9565b60405180910390a150565b6112c261286d565b73ffffffffffffffffffffffffffffffffffffffff166112e061140a565b73ffffffffffffffffffffffffffffffffffffffff1614611336576040517f08c379a000000000000000000000000000000000000000000000000000000000815260040161132d906137cb565b60405180910390fd5b6113406000612984565b565b6060600260006003548152602001908152602001600020600901805461136790613b35565b80601f016020809104026020016040519081016040528092919081815260200182805461139390613b35565b80156113e05780601f106113b5576101008083540402835291602001916113e0565b820191906000526020600020905b8154815290600101906020018083116113c357829003601f168201915b5050505050905090565b600060026000600354815260200190815260200160002060000154905090565b6000600160009054906101000a900473ffffffffffffffffffffffffffffffffffffffff16905090565b61143c61286d565b73ffffffffffffffffffffffffffffffffffffffff1661145a61140a565b73ffffffffffffffffffffffffffffffffffffffff16146114b0576040517f08c379a00000000000000000000000000000000000000000000000000000000081526004016114a7906137cb565b60405180910390fd5b7f000000000000000000000000000000000000000000000000000000000000000073ffffffffffffffffffffffffffffffffffffffff1663a9059cbb6114f461140a565b7f000000000000000000000000000000000000000000000000000000000000000073ffffffffffffffffffffffffffffffffffffffff166370a08231306040518263ffffffff1660e01b815260040161154d91906134a3565b60206040518083038186803b15801561156557600080fd5b505afa158015611579573d6000803e3d6000fd5b505050506040513d601f19601f8201168201806040525081019061159d9190613155565b6040518363ffffffff1660e01b81526004016115ba929190613555565b602060405180830381600087803b1580156115d457600080fd5b505af11580156115e8573d6000803e3d6000fd5b505050506040513d601f19601f8201168201806040525081019061160c9190613072565b50565b600061161961286d565b73ffffffffffffffffffffffffffffffffffffffff1661163761140a565b73ffffffffffffffffffffffffffffffffffffffff161461168d576040517f08c379a0000000000000000000000000000000000000000000000000000000008152600401611684906137cb565b60405180910390fd5b7f000000000000000000000000000000000000000000000000000000000000000073ffffffffffffffffffffffffffffffffffffffff166370a08231306040518263ffffffff1660e01b81526004016116e691906134a3565b60206040518083038186803b1580156116fe57600080fd5b505afa158015611712573d6000803e3d6000fd5b505050506040513d601f19601f820116820180604052508101906117369190613155565b905090565b7f000000000000000000000000000000000000000000000000000000000000000073ffffffffffffffffffffffffffffffffffffffff163373ffffffffffffffffffffffffffffffffffffffff16146117c9576040517f08c379a00000000000000000000000000000000000000000000000000000000081526004016117c09061382b565b60405180910390fd5b6117d38282612a4a565b5050565b6000600260006004548152602001908152602001600020600a0154905090565b6000600960009054906101000a900473ffffffffffffffffffffffffffffffffffffffff1673ffffffffffffffffffffffffffffffffffffffff166370a08231306040518263ffffffff1660e01b815260040161185491906134a3565b60206040518083038186803b15801561186c57600080fd5b505afa158015611880573d6000803e3d6000fd5b505050506040513d601f19601f820116820180604052508101906118a49190613155565b905090565b6118b161286d565b73ffffffffffffffffffffffffffffffffffffffff166118cf61140a565b73ffffffffffffffffffffffffffffffffffffffff1614611925576040517f08c379a000000000000000000000000000000000000000000000000000000000815260040161191c906137cb565b60405180910390fd5b60006002600060035481526020019081526020016000206000015411611980576040517f08c379a00000000000000000000000000000000000000000000000000000000081526004016119779061376b565b60405180910390fd5b6000600560009054906101000a900460ff1660018111156119a4576119a3613c84565b5b8160018111156119b7576119b6613c84565b5b146119f7576040517f08c379a00000000000000000000000000000000000000000000000000000000081526004016119ee9061378b565b60405180910390fd5b6001600560006101000a81548160ff02191690836001811115611a1d57611a1c613c84565b5b021790555050565b611a2d61286d565b73ffffffffffffffffffffffffffffffffffffffff16611a4b61140a565b73ffffffffffffffffffffffffffffffffffffffff1614611aa1576040517f08c379a0000000000000000000000000000000000000000000000000000000008152600401611a98906137cb565b60405180910390fd5b6001600560009054906101000a900460ff166001811115611ac557611ac4613c84565b5b816001811115611ad857611ad7613c84565b5b14611b18576040517f08c379a0000000000000000000000000000000000000000000000000000000008152600401611b0f9061378b565b60405180910390fd5b7ff365572afe8ffc42a970a74506605f9820182a5129cc5ebd5be0fedf3e7c000f600960009054906101000a900473ffffffffffffffffffffffffffffffffffffffff1673ffffffffffffffffffffffffffffffffffffffff166370a08231306040518263ffffffff1660e01b8152600401611b9491906134a3565b60206040518083038186803b158015611bac57600080fd5b505afa158015611bc0573d6000803e3d6000fd5b505050506040513d601f19601f82011682018060405250810190611be49190613155565b6003546002600060035481526020019081526020016000206005015460026000600354815260200190815260200160002060060154604051611c2994939291906138a6565b60405180910390a16000600560006101000a81548160ff02191690836001811115611c5757611c56613c84565b5b02179055506003546004819055506000600190505b600260006003548152602001908152602001600020600601548111611dd257611dbf600260006003548152602001908152602001600020600401600083815260200190815260200160002060009054906101000a900473ffffffffffffffffffffffffffffffffffffffff166002600060035481526020019081526020016000206003016000600260006003548152602001908152602001600020600401600086815260200190815260200160002060009054906101000a900473ffffffffffffffffffffffffffffffffffffffff1673ffffffffffffffffffffffffffffffffffffffff1673ffffffffffffffffffffffffffffffffffffffff16815260200190815260200160002054600960009054906101000a900473ffffffffffffffffffffffffffffffffffffffff1673ffffffffffffffffffffffffffffffffffffffff166128fe9092919063ffffffff16565b8080611dca90613b98565b915050611c6c565b5050565b611dde61286d565b73ffffffffffffffffffffffffffffffffffffffff16611dfc61140a565b73ffffffffffffffffffffffffffffffffffffffff1614611e52576040517f08c379a0000000000000000000000000000000000000000000000000000000008152600401611e49906137cb565b60405180910390fd5b806002600060035481526020019081526020016000206009019080519060200190611e7e929190612ec9565b5050565b611e8a61286d565b73ffffffffffffffffffffffffffffffffffffffff16611ea861140a565b73ffffffffffffffffffffffffffffffffffffffff1614611efe576040517f08c379a0000000000000000000000000000000000000000000000000000000008152600401611ef5906137cb565b60405180910390fd5b6001600560009054906101000a900460ff166001811115611f2257611f21613c84565b5b816001811115611f3557611f34613c84565b5b14611f75576040517f08c379a0000000000000000000000000000000000000000000000000000000008152600401611f6c9061378b565b60405180910390fd5b600360026000600354815260200190815260200160002060070181905550600260006003548152602001908152602001600020600101600060026000600354815260200190815260200160002060070154815260200190815260200160002060009054906101000a900473ffffffffffffffffffffffffffffffffffffffff1660026000600354815260200190815260200160002060080160006101000a81548173ffffffffffffffffffffffffffffffffffffffff021916908373ffffffffffffffffffffffffffffffffffffffff1602179055506000600560006101000a81548160ff0219169083600181111561207157612070613c84565b5b02179055506003546004819055506121ae60026000600354815260200190815260200160002060080160009054906101000a900473ffffffffffffffffffffffffffffffffffffffff16600960009054906101000a900473ffffffffffffffffffffffffffffffffffffffff1673ffffffffffffffffffffffffffffffffffffffff166370a08231306040518263ffffffff1660e01b815260040161211691906134a3565b60206040518083038186803b15801561212e57600080fd5b505afa158015612142573d6000803e3d6000fd5b505050506040513d601f19601f820116820180604052508101906121669190613155565b600960009054906101000a900473ffffffffffffffffffffffffffffffffffffffff1673ffffffffffffffffffffffffffffffffffffffff166128fe9092919063ffffffff16565b50565b60006121bb61286d565b73ffffffffffffffffffffffffffffffffffffffff166121d961140a565b73ffffffffffffffffffffffffffffffffffffffff161461222f576040517f08c379a0000000000000000000000000000000000000000000000000000000008152600401612226906137cb565b60405180910390fd5b60026000600354815260200190815260200160002060070154905090565b61225561286d565b73ffffffffffffffffffffffffffffffffffffffff1661227361140a565b73ffffffffffffffffffffffffffffffffffffffff16146122c9576040517f08c379a00000000000000000000000000000000000000000000000000000000081526004016122c0906137cb565b60405180910390fd5b6122d281612686565b50565b6122dd61286d565b73ffffffffffffffffffffffffffffffffffffffff166122fb61140a565b73ffffffffffffffffffffffffffffffffffffffff1614612351576040517f08c379a0000000000000000000000000000000000000000000000000000000008152600401612348906137cb565b60405180910390fd5b6000600560009054906101000a900460ff16600181111561237557612374613c84565b5b81600181111561238857612387613c84565b5b146123c8576040517f08c379a00000000000000000000000000000000000000000000000000000000081526004016123bf9061378b565b60405180910390fd5b600360008154809291906123db90613b98565b9190505550600060026000600354815260200190815260200160002090505050565b600060026000600354815260200190815260200160002060030160008373ffffffffffffffffffffffffffffffffffffffff1673ffffffffffffffffffffffffffffffffffffffff168152602001908152602001600020549050919050565b600061246661286d565b73ffffffffffffffffffffffffffffffffffffffff1661248461140a565b73ffffffffffffffffffffffffffffffffffffffff16146124da576040517f08c379a00000000000000000000000000000000000000000000000000000000081526004016124d1906137cb565b60405180910390fd5b6007547f000000000000000000000000000000000000000000000000000000000000000073ffffffffffffffffffffffffffffffffffffffff166370a08231306040518263ffffffff1660e01b815260040161253691906134a3565b60206040518083038186803b15801561254e57600080fd5b505afa158015612562573d6000803e3d6000fd5b505050506040513d601f19601f820116820180604052508101906125869190613155565b10156125c7576040517f08c379a00000000000000000000000000000000000000000000000000000000081526004016125be9061372b565b60405180910390fd5b6125d5600654600754612a8e565b905090565b60006125e461286d565b73ffffffffffffffffffffffffffffffffffffffff1661260261140a565b73ffffffffffffffffffffffffffffffffffffffff1614612658576040517f08c379a000000000000000000000000000000000000000000000000000000000815260040161264f906137cb565b60405180910390fd5b600354905090565b600960009054906101000a900473ffffffffffffffffffffffffffffffffffffffff1681565b61268e61286d565b73ffffffffffffffffffffffffffffffffffffffff166126ac61140a565b73ffffffffffffffffffffffffffffffffffffffff1614612702576040517f08c379a00000000000000000000000000000000000000000000000000000000081526004016126f9906137cb565b60405180910390fd5b600073ffffffffffffffffffffffffffffffffffffffff168173ffffffffffffffffffffffffffffffffffffffff161415612772576040517f08c379a00000000000000000000000000000000000000000000000000000000081526004016127699061370b565b60405180910390fd5b61277b81612984565b50565b600060026000600354815260200190815260200160002060060154905090565b60006127a861286d565b73ffffffffffffffffffffffffffffffffffffffff166127c661140a565b73ffffffffffffffffffffffffffffffffffffffff161461281c576040517f08c379a0000000000000000000000000000000000000000000000000000000008152600401612813906137cb565b60405180910390fd5b600260006003548152602001908152602001600020600101600083815260200190815260200160002060009054906101000a900473ffffffffffffffffffffffffffffffffffffffff169050919050565b600033905090565b6128f8846323b872dd60e01b8585856040516024016128969392919061351e565b604051602081830303815290604052907bffffffffffffffffffffffffffffffffffffffffffffffffffffffff19166020820180517bffffffffffffffffffffffffffffffffffffffffffffffffffffffff8381831617835250505050612bed565b50505050565b61297f8363a9059cbb60e01b848460405160240161291d929190613555565b604051602081830303815290604052907bffffffffffffffffffffffffffffffffffffffffffffffffffffffff19166020820180517bffffffffffffffffffffffffffffffffffffffffffffffffffffffff8381831617835250505050612bed565b505050565b6000600160009054906101000a900473ffffffffffffffffffffffffffffffffffffffff16905081600160006101000a81548173ffffffffffffffffffffffffffffffffffffffff021916908373ffffffffffffffffffffffffffffffffffffffff1602179055508173ffffffffffffffffffffffffffffffffffffffff168173ffffffffffffffffffffffffffffffffffffffff167f8be0079c531659141344cd1fd0a4f28419497f9722a3daafe3b4186f6b6457e060405160405180910390a35050565b806008819055507f5c10ca0199987cae3815b7eb668fe3227b175e59c98fae7c678196bab3488ba4600854604051612a82919061388b565b60405180910390a15050565b60007f000000000000000000000000000000000000000000000000000000000000000073ffffffffffffffffffffffffffffffffffffffff16634000aea07f000000000000000000000000000000000000000000000000000000000000000084866000604051602001612b02929190613645565b6040516020818303038152906040526040518463ffffffff1660e01b8152600401612b2f9392919061357e565b602060405180830381600087803b158015612b4957600080fd5b505af1158015612b5d573d6000803e3d6000fd5b505050506040513d601f19601f82011682018060405250810190612b819190613072565b506000612ba38460003060008089815260200190815260200160002054612cb4565b9050600160008086815260200190815260200160002054612bc49190613984565b60008086815260200190815260200160002081905550612be48482612cf0565b91505092915050565b6000612c4f826040518060400160405280602081526020017f5361666545524332303a206c6f772d6c6576656c2063616c6c206661696c65648152508573ffffffffffffffffffffffffffffffffffffffff16612d239092919063ffffffff16565b9050600081511115612caf5780806020019051810190612c6f9190613072565b612cae576040517f08c379a0000000000000000000000000000000000000000000000000000000008152600401612ca59061386b565b60405180910390fd5b5b505050565b600084848484604051602001612ccd949392919061366e565b6040516020818303038152906040528051906020012060001c9050949350505050565b60008282604051602001612d05929190613460565b60405160208183030381529060405280519060200120905092915050565b6060612d328484600085612d3b565b90509392505050565b606082471015612d80576040517f08c379a0000000000000000000000000000000000000000000000000000000008152600401612d779061374b565b60405180910390fd5b612d8985612e4f565b612dc8576040517f08c379a0000000000000000000000000000000000000000000000000000000008152600401612dbf9061384b565b60405180910390fd5b6000808673ffffffffffffffffffffffffffffffffffffffff168587604051612df1919061348c565b60006040518083038185875af1925050503d8060008114612e2e576040519150601f19603f3d011682016040523d82523d6000602084013e612e33565b606091505b5091509150612e43828286612e62565b92505050949350505050565b600080823b905060008111915050919050565b60608315612e7257829050612ec2565b600083511115612e855782518084602001fd5b816040517f08c379a0000000000000000000000000000000000000000000000000000000008152600401612eb991906136e9565b60405180910390fd5b9392505050565b828054612ed590613b35565b90600052602060002090601f016020900481019282612ef75760008555612f3e565b82601f10612f1057805160ff1916838001178555612f3e565b82800160010185558215612f3e579182015b82811115612f3d578251825591602001919060010190612f22565b5b509050612f4b9190612f4f565b5090565b5b80821115612f68576000816000905550600101612f50565b5090565b6000612f7f612f7a84613910565b6138eb565b905082815260208101848484011115612f9b57612f9a613d16565b5b612fa6848285613af3565b509392505050565b600081359050612fbd8161401a565b92915050565b600081519050612fd281614031565b92915050565b600081359050612fe781614048565b92915050565b600082601f83011261300257613001613d11565b5b8135613012848260208601612f6c565b91505092915050565b60008135905061302a8161405f565b92915050565b60008151905061303f8161405f565b92915050565b60006020828403121561305b5761305a613d20565b5b600061306984828501612fae565b91505092915050565b60006020828403121561308857613087613d20565b5b600061309684828501612fc3565b91505092915050565b600080604083850312156130b6576130b5613d20565b5b60006130c485828601612fd8565b92505060206130d58582860161301b565b9150509250929050565b6000602082840312156130f5576130f4613d20565b5b600082013567ffffffffffffffff81111561311357613112613d1b565b5b61311f84828501612fed565b91505092915050565b60006020828403121561313e5761313d613d20565b5b600061314c8482850161301b565b91505092915050565b60006020828403121561316b5761316a613d20565b5b600061317984828501613030565b91505092915050565b61318b81613a46565b82525050565b61319a81613a34565b82525050565b6131a981613a58565b82525050565b6131b881613a64565b82525050565b6131cf6131ca82613a64565b613be1565b82525050565b60006131e082613941565b6131ea8185613957565b93506131fa818560208601613b02565b61320381613d25565b840191505092915050565b600061321982613941565b6132238185613968565b9350613233818560208601613b02565b80840191505092915050565b61324881613aab565b82525050565b61325781613abd565b82525050565b60006132688261394c565b6132728185613973565b9350613282818560208601613b02565b61328b81613d25565b840191505092915050565b60006132a3602683613973565b91506132ae82613d36565b604082019050919050565b60006132c6602b83613973565b91506132d182613d85565b604082019050919050565b60006132e9602683613973565b91506132f482613dd4565b604082019050919050565b600061330c601c83613973565b915061331782613e23565b602082019050919050565b600061332f602183613973565b915061333a82613e4c565b604082019050919050565b6000613352601e83613973565b915061335d82613e9b565b602082019050919050565b6000613375602083613973565b915061338082613ec4565b602082019050919050565b6000613398601a83613973565b91506133a382613eed565b602082019050919050565b60006133bb602383613973565b91506133c682613f16565b604082019050919050565b60006133de601f83613973565b91506133e982613f65565b602082019050919050565b6000613401601d83613973565b915061340c82613f8e565b602082019050919050565b6000613424602a83613973565b915061342f82613fb7565b604082019050919050565b61344381613aa1565b82525050565b61345a61345582613aa1565b613beb565b82525050565b600061346c82856131be565b60208201915061347c8284613449565b6020820191508190509392505050565b6000613498828461320e565b915081905092915050565b60006020820190506134b86000830184613191565b92915050565b60006020820190506134d36000830184613182565b92915050565b60006080820190506134ee6000830187613182565b6134fb602083018661343a565b613508604083018561343a565b613515606083018461343a565b95945050505050565b60006060820190506135336000830186613191565b6135406020830185613191565b61354d604083018461343a565b949350505050565b600060408201905061356a6000830185613191565b613577602083018461343a565b9392505050565b60006060820190506135936000830186613191565b6135a0602083018561343a565b81810360408301526135b281846131d5565b9050949350505050565b600060a0820190506135d16000830188613191565b6135de602083018761343a565b6135eb604083018661343a565b6135f8606083018561343a565b61360560808301846131a0565b9695505050505050565b600060208201905061362460008301846131a0565b92915050565b600060208201905061363f60008301846131af565b92915050565b600060408201905061365a60008301856131af565b613667602083018461343a565b9392505050565b600060808201905061368360008301876131af565b613690602083018661343a565b61369d6040830185613191565b6136aa606083018461343a565b95945050505050565b60006020820190506136c8600083018461323f565b92915050565b60006020820190506136e3600083018461324e565b92915050565b60006020820190508181036000830152613703818461325d565b905092915050565b6000602082019050818103600083015261372481613296565b9050919050565b60006020820190508181036000830152613744816132b9565b9050919050565b60006020820190508181036000830152613764816132dc565b9050919050565b60006020820190508181036000830152613784816132ff565b9050919050565b600060208201905081810360008301526137a481613322565b9050919050565b600060208201905081810360008301526137c481613345565b9050919050565b600060208201905081810360008301526137e481613368565b9050919050565b600060208201905081810360008301526138048161338b565b9050919050565b60006020820190508181036000830152613824816133ae565b9050919050565b60006020820190508181036000830152613844816133d1565b9050919050565b60006020820190508181036000830152613864816133f4565b9050919050565b6000602082019050818103600083015261388481613417565b9050919050565b60006020820190506138a0600083018461343a565b92915050565b60006080820190506138bb600083018761343a565b6138c8602083018661343a565b6138d5604083018561343a565b6138e2606083018461343a565b95945050505050565b60006138f5613906565b90506139018282613b67565b919050565b6000604051905090565b600067ffffffffffffffff82111561392b5761392a613ce2565b5b61393482613d25565b9050602081019050919050565b600081519050919050565b600081519050919050565b600082825260208201905092915050565b600081905092915050565b600082825260208201905092915050565b600061398f82613aa1565b915061399a83613aa1565b9250827fffffffffffffffffffffffffffffffffffffffffffffffffffffffffffffffff038211156139cf576139ce613c26565b5b828201905092915050565b60006139e582613aa1565b91506139f083613aa1565b9250817fffffffffffffffffffffffffffffffffffffffffffffffffffffffffffffffff0483118215151615613a2957613a28613c26565b5b828202905092915050565b6000613a3f82613a81565b9050919050565b6000613a5182613a81565b9050919050565b60008115159050919050565b6000819050919050565b6000819050613a7c82614006565b919050565b600073ffffffffffffffffffffffffffffffffffffffff82169050919050565b6000819050919050565b6000613ab682613acf565b9050919050565b6000613ac882613a6e565b9050919050565b6000613ada82613ae1565b9050919050565b6000613aec82613a81565b9050919050565b82818337600083830152505050565b60005b83811015613b20578082015181840152602081019050613b05565b83811115613b2f576000848401525b50505050565b60006002820490506001821680613b4d57607f821691505b60208210811415613b6157613b60613cb3565b5b50919050565b613b7082613d25565b810181811067ffffffffffffffff82111715613b8f57613b8e613ce2565b5b80604052505050565b6000613ba382613aa1565b91507fffffffffffffffffffffffffffffffffffffffffffffffffffffffffffffffff821415613bd657613bd5613c26565b5b600182019050919050565b6000819050919050565b6000819050919050565b6000613c0082613aa1565b9150613c0b83613aa1565b925082613c1b57613c1a613c55565b5b828206905092915050565b7f4e487b7100000000000000000000000000000000000000000000000000000000600052601160045260246000fd5b7f4e487b7100000000000000000000000000000000000000000000000000000000600052601260045260246000fd5b7f4e487b7100000000000000000000000000000000000000000000000000000000600052602160045260246000fd5b7f4e487b7100000000000000000000000000000000000000000000000000000000600052602260045260246000fd5b7f4e487b7100000000000000000000000000000000000000000000000000000000600052604160045260246000fd5b600080fd5b600080fd5b600080fd5b600080fd5b6000601f19601f8301169050919050565b7f4f776e61626c653a206e6577206f776e657220697320746865207a65726f206160008201527f6464726573730000000000000000000000000000000000000000000000000000602082015250565b7f4e6f7420656e6f756768204c494e4b202d2066696c6c20636f6e74726163742060008201527f7769746820666175636574000000000000000000000000000000000000000000602082015250565b7f416464726573733a20696e73756666696369656e742062616c616e636520666f60008201527f722063616c6c0000000000000000000000000000000000000000000000000000602082015250565b7f7469636b6574207072696365206e6565647320746f2062652073657400000000600082015250565b7f63757272656e7420737461746520646f6573206e6f7420616c6c6f772074686960008201527f7300000000000000000000000000000000000000000000000000000000000000602082015250565b7f4d757374206861766520637265617465642061207072697a6520647261770000600082015250565b7f4f776e61626c653a2063616c6c6572206973206e6f7420746865206f776e6572600082015250565b7f6d75737420627579206174206c656173742031207469636b6574000000000000600082015250565b7f7469636b6574207072696365206d75737420626520677265617465722074686160008201527f6e20300000000000000000000000000000000000000000000000000000000000602082015250565b7f4f6e6c7920565246436f6f7264696e61746f722063616e2066756c66696c6c00600082015250565b7f416464726573733a2063616c6c20746f206e6f6e2d636f6e7472616374000000600082015250565b7f5361666545524332303a204552433230206f7065726174696f6e20646964206e60008201527f6f74207375636365656400000000000000000000000000000000000000000000602082015250565b6002811061401757614016613c84565b5b50565b61402381613a34565b811461402e57600080fd5b50565b61403a81613a58565b811461404557600080fd5b50565b61405181613a64565b811461405c57600080fd5b50565b61406881613aa1565b811461407357600080fd5b5056fea26469706673582212202812b37716675f38f10e70fd26e5681aac6b19875663f96ed81e13761bbe679a64736f6c63430008070033",
  "immutableReferences": {
    "73": [
      {
        "length": 32,
        "start": 5298
      },
      {
        "length": 32,
        "start": 5366
      },
      {
        "length": 32,
        "start": 5775
      },
      {
        "length": 32,
        "start": 9439
      },
      {
        "length": 32,
        "start": 10898
      }
    ],
    "75": [
      {
        "length": 32,
        "start": 5949
      },
      {
        "length": 32,
        "start": 10958
      }
    ]
  },
  "source": "// SPDX-License-Identifier: UNLICENSED\"\r\n\r\npragma solidity ^0.8.7;\r\n\r\nimport \"@openzeppelin/contracts/token/ERC20/IERC20.sol\";\r\nimport \"@openzeppelin/contracts/token/ERC20/utils/SafeERC20.sol\";\r\nimport \"@openzeppelin/contracts/access/Ownable.sol\";\r\nimport \"@chainlink/contracts/src/v0.8/VRFConsumerBase.sol\";\r\n\r\n/**\r\n* @title A prize draw for ERC20 tokens\r\n* @author Jake O'Halloran\r\n* @notice You can use this contract to run a basic prize draw for your ERC20 token community\r\n* @dev Ensure the contract address has sufficient LINK to allow for the winner to be selected\r\n*/\r\ncontract PrizeDrawContract is VRFConsumerBase, Ownable {\r\n\r\n    /// @notice Tracks whether a prize draw is running or not\r\n    enum State {\r\n        IDLE,\r\n        RUNNING\r\n    }\r\n\r\n    using SafeERC20 for IERC20;\r\n\r\n    /// @notice Log what random number was received from Chainlink\r\n    event NumberReceived(uint256 randomNumber);\r\n\r\n    /// @notice Log the results of a draw\r\n    event WinnerEvent(address payable winner, uint ticket, uint winnings, uint random);\r\n\r\n    /// @notice Log when a draw was canceled\r\n    event CancelEvent(uint balance, uint id, uint tickets, uint players);\r\n\r\n    /// @notice Log when a ticket was bought for a draw\r\n    event BuyEvent(address player, uint ticketAmount, uint ticketPrice, uint requiredToken, bool prevBuyer);\r\n\r\n    /// @notice represents a single draw\r\n    struct PrizeDraw {\r\n        uint ticketPrice;\r\n        mapping(uint => address) prizeDrawingPool;\r\n        mapping(address => uint) ticketsPerPlayer;\r\n        mapping(address => uint) tokenSpentPerPlayer;\r\n        mapping(uint => address) players;\r\n        uint totalTickets;\r\n        uint totalPlayers;\r\n        uint winningTicket;\r\n        address payable winner;\r\n        string date;\r\n        uint finalPool;\r\n    }\r\n\r\n    mapping(uint => PrizeDraw) internal prizeDraws;\r\n    uint internal currentID = 0;\r\n    uint internal previousID = 0;\r\n\r\n    /// @notice Log when a ticket was bought for a draw\r\n    State public currentState = State.IDLE;\r\n    \r\n    /// @notice variables for chainlink\r\n    bytes32 internal keyHash;\r\n    uint256 internal fee;\r\n    uint256 internal randomResult;\r\n\r\n    /// @notice the ERC20 token used by the smart contract\r\n    IERC20 public prizeDrawToken;\r\n\r\n    /// @notice modifier to ensure a prize draw was created\r\n    modifier prizeDrawCreated() {\r\n        require(previousID < currentID, \"Must have created a prize draw\");\r\n        _;\r\n    }\r\n    \r\n    /**\r\n    * @notice to ensure we are in the correct state for a function to run\r\n    * @param state the state that the current state will be compared with\r\n    */\r\n    modifier inState(State state) {\r\n        require(state == currentState, 'current state does not allow this');\r\n        _;\r\n    }\r\n    \r\n    /// @notice modifier to ensure the prize draw tickets have a value\r\n    modifier ticketPriceSet() {\r\n        require(prizeDraws[currentID].ticketPrice > 0, 'ticket price needs to be set');\r\n        _;\r\n    }\r\n\r\n    /// @param tokenAddress The erc20 token used for the prize draws\r\n    constructor(address tokenAddress) \r\n        VRFConsumerBase(\r\n            0xdD3782915140c8f3b190B5D67eAc6dc5760C46E9, // VRF Coordinator\r\n            0xa36085F69e2889c224210F603D836748e7dC0088  // LINK Token\r\n        )\r\n    {\r\n        keyHash = 0x6c3699283bda56ad74f6b855546325b68d482e983852a7a82979cc4807b641f4;\r\n        fee = 0.1 * 10 ** 18;\r\n\r\n        prizeDrawToken = IERC20(tokenAddress);\r\n    }\r\n    \r\n    /**\r\n    * @notice Request a random number from chainlink\r\n    * @return requestId the id of the random number request\r\n    */\r\n    function getRandomNumber() public onlyOwner returns (bytes32 requestId) {\r\n        require(LINK.balanceOf(address(this)) >= fee, \"Not enough LINK - fill contract with faucet\");\r\n        return requestRandomness(keyHash, fee);\r\n    }\r\n\r\n    /**\r\n    * @notice function called by the chainlink oracle when random number has been generated\r\n    * @param requestId the id of the random number request\r\n    * @param randomness the random number generated by chainlink\r\n    * @dev frontend needs to be listening for the NumberReceived event\r\n    * @inheritdoc VRFConsumerBase\r\n    */\r\n    function fulfillRandomness(bytes32 requestId, uint256 randomness) internal override {\r\n        randomResult = randomness;\r\n        emit NumberReceived(randomResult);\r\n    }\r\n\r\n    /// @notice create a new prize draw\r\n    function createPrizeDraw() external onlyOwner inState(State.IDLE) {\r\n        currentID++;\r\n\r\n        PrizeDraw storage newPrizeDraw = prizeDraws[currentID];\r\n    }\r\n    \r\n    /**\r\n    * @notice set the ticket price for the current prize draw\r\n    * @param _ticketPrice the price, i.e how many tokens to purchase a ticket\r\n    */\r\n    function setTicketPrice(uint _ticketPrice) external onlyOwner prizeDrawCreated inState(State.IDLE) {\r\n        require(_ticketPrice > 0, 'ticket price must be greater than 0');\r\n        prizeDraws[currentID].ticketPrice = _ticketPrice;\r\n    }\r\n\r\n    /**\r\n    * @notice set the date that the winner will be selected for the current prize draw\r\n    * @param date the date string\r\n    */\r\n    function saveDate(string memory date) external onlyOwner {\r\n        prizeDraws[currentID].date = date;\r\n    }\r\n    \r\n    /// @notice start the current prize draw\r\n    function startPrizeDraw() external onlyOwner ticketPriceSet inState(State.IDLE) {\r\n        currentState = State.RUNNING;\r\n    }\r\n    \r\n    /**\r\n    * @notice receive tokens and assign tickets to the address\r\n    * @param ticketAmount number of tickets to user is trying to buy\r\n    * @return returns true when tickets have been purchased succesfully\r\n    */\r\n    function buyTickets(uint ticketAmount) external inState(State.RUNNING) ticketPriceSet returns(bool) {\r\n        require(ticketAmount > 0, \"must buy at least 1 ticket\");\r\n\r\n        bool prevBuyer = false;\r\n        \r\n        uint requiredToken = prizeDraws[currentID].ticketPrice * ticketAmount;\r\n\r\n        uint requiredToken_toWei = requiredToken * 10 ** 18;\r\n        \r\n        prizeDrawToken.safeTransferFrom(msg.sender, address(this), requiredToken_toWei);\r\n\r\n        // has player bought ticket before?\r\n        if(prizeDraws[currentID].ticketsPerPlayer[msg.sender] == 0) {\r\n            prizeDraws[currentID].totalPlayers++;\r\n            prizeDraws[currentID].players[prizeDraws[currentID].totalPlayers] = msg.sender;\r\n        } else {\r\n            prevBuyer = true;\r\n        }\r\n\r\n        prizeDraws[currentID].ticketsPerPlayer[msg.sender] += ticketAmount;\r\n        prizeDraws[currentID].tokenSpentPerPlayer[msg.sender] += requiredToken_toWei;\r\n\r\n        for(uint i = 1; i <= ticketAmount; i++) {\r\n            prizeDraws[currentID].prizeDrawingPool[prizeDraws[currentID].totalTickets+i] = msg.sender;\r\n        }\r\n        \r\n        prizeDraws[currentID].totalTickets += ticketAmount;\r\n\r\n        emit BuyEvent(msg.sender, ticketAmount, prizeDraws[currentID].ticketPrice, requiredToken_toWei, prevBuyer);\r\n\r\n        return true;\r\n    }\r\n    \r\n    /// @notice owner picks the winner of the current prize draw at random, the winner receives the prize pool tokens\r\n    function pickWinner() external onlyOwner inState(State.RUNNING) {\r\n        prizeDraws[currentID].winningTicket = (randomResult % prizeDraws[currentID].totalTickets) + 1;\r\n        prizeDraws[currentID].finalPool = prizeDrawToken.balanceOf(address(this));\r\n        prizeDraws[currentID].winner = payable(prizeDraws[currentID].prizeDrawingPool[prizeDraws[currentID].winningTicket]);\r\n\r\n        currentState = State.IDLE;\r\n        previousID = currentID;\r\n        \r\n        prizeDrawToken.safeTransfer(prizeDraws[currentID].winner, prizeDrawToken.balanceOf(address(this)));\r\n\r\n        emit WinnerEvent(prizeDraws[currentID].winner, prizeDraws[currentID].winningTicket, prizeDraws[currentID].finalPool, randomResult);\r\n    }\r\n    \r\n    /// @notice end the current prize draw and refund all players their tokens\r\n    function cancelPrizeDraw() external onlyOwner inState(State.RUNNING) {\r\n        emit CancelEvent(prizeDrawToken.balanceOf(address(this)), currentID, prizeDraws[currentID].totalTickets, prizeDraws[currentID].totalPlayers);\r\n\r\n        currentState = State.IDLE;\r\n        previousID = currentID;\r\n\r\n        for(uint i = 1; i <= prizeDraws[currentID].totalPlayers; i++) {\r\n            prizeDrawToken.safeTransfer(prizeDraws[currentID].players[i], prizeDraws[currentID].tokenSpentPerPlayer[prizeDraws[currentID].players[i]]);\r\n        }\r\n    }\r\n\r\n    /**\r\n    * @notice Allows the current owner to transfer control of the contract to a newOwner.\r\n    * @param newOwner The address to transfer ownership to.\r\n    */\r\n    function _transferOwnership(address newOwner) public onlyOwner {\r\n        transferOwnership(newOwner);\r\n    }\r\n    \r\n    /**\r\n    * @notice shows everyone what they're playing for, the prize pool\r\n    * @return newOwner The address to transfer ownership to.\r\n    */\r\n    function getTotalPrize() external view returns(uint256) {\r\n        return prizeDrawToken.balanceOf(address(this));\r\n    }\r\n    \r\n    /// @notice a withdraw function to avoid locking your LINK in the contract\r\n    function withdrawLink() external onlyOwner {\r\n        LINK.transfer(owner(), LINK.balanceOf(address(this)));\r\n    }\r\n    \r\n    /**\r\n    * @notice determine how much link is left in the contract\r\n    * @return the link balance for this contract\r\n    */\r\n    function getRemainingLINK() external view onlyOwner returns (uint256) {\r\n        return LINK.balanceOf(address(this));\r\n    }\r\n\r\n    /**\r\n    * @notice gets the current prize draws ticket price\r\n    * @return the current prize draws ticket price\r\n    */\r\n    function getTicketPrice() external view returns (uint) {\r\n        return prizeDraws[currentID].ticketPrice;\r\n    }\r\n\r\n    /**\r\n    * @notice gets the total number of players for the current prize draw\r\n    * @return the total players for the current draw\r\n    */\r\n    function getPrizeDrawPlayers() external view returns (uint) {\r\n        return prizeDraws[currentID].totalPlayers;\r\n    }\r\n\r\n    /**\r\n    * @notice gets the total number of tickets bought for the current prize draw\r\n    * @return the total tickets for the current draw\r\n    */\r\n    function getPrizeDrawTickets() external view returns (uint) {\r\n        return prizeDraws[currentID].totalTickets;\r\n    }\r\n\r\n    /**\r\n    * @notice gets the date the current prize draw will be ended by the owner\r\n    * @return the current draws date\r\n    */\r\n    function getPrizeDrawDate() external view returns (string memory) {\r\n        return prizeDraws[currentID].date;\r\n    }\r\n\r\n    /**\r\n    * @notice gets the total number of tickets bought for the current prize draw\r\n    * @return the total tickets for the current draw\r\n    */\r\n    function getPreviousWinner() external view returns (address) {\r\n        return prizeDraws[previousID].winner;\r\n    }\r\n\r\n    /**\r\n    * @notice gets the total amount of tokens the winner of the last prize draw received\r\n    * @return the amount of tokens won in the previous prize draw\r\n    */\r\n    function getPreviousPrize() external view returns (uint) {\r\n        return prizeDraws[previousID].finalPool;\r\n    }\r\n\r\n    /**\r\n    * @notice gets the total tickets purchased by a specific player\r\n    * @param player the address of a player\r\n    * @return the amount of tickets owned by the player\r\n    */\r\n    function getTicketsPerPlayer(address player) external view returns (uint) {\r\n        return prizeDraws[currentID].ticketsPerPlayer[player];\r\n    }\r\n\r\n    /**\r\n    * @notice pick a winner for the current prize draw, winner will always be the same\r\n    * @dev function used for unit tests only\r\n    */\r\n    function pickWinnerTest() external onlyOwner inState(State.RUNNING) {\r\n        prizeDraws[currentID].winningTicket = 3;\r\n        \r\n        prizeDraws[currentID].winner = payable(prizeDraws[currentID].prizeDrawingPool[prizeDraws[currentID].winningTicket]);\r\n\r\n        currentState = State.IDLE;\r\n\r\n        previousID = currentID;\r\n        \r\n        prizeDrawToken.safeTransfer(prizeDraws[currentID].winner, prizeDrawToken.balanceOf(address(this)));\r\n    }\r\n\r\n    /**\r\n    * @notice gets the id for the previous prize draw\r\n    * @dev function used for unit tests only\r\n    * @return the previous prize draws id\r\n    */\r\n    function getPrevPrizeDraw() external view onlyOwner returns (uint) {\r\n        return previousID;\r\n    }\r\n\r\n    /**\r\n    * @notice gets the id for the current prize draw\r\n    * @dev function used for unit tests only\r\n    * @return the current prize draws id\r\n    */\r\n    function getPrizeDrawCount() external view onlyOwner returns (uint) {\r\n        return currentID;\r\n    }\r\n\r\n    /**\r\n    * @notice see who owns a particular ticket for the current draw\r\n    * @param ticketNumber the tickets number\r\n    * @dev function used for unit tests only\r\n    * @return the address of the ticket owner\r\n    */\r\n    function getTicketAddress(uint ticketNumber) external view onlyOwner returns (address) {\r\n        return prizeDraws[currentID].prizeDrawingPool[ticketNumber];\r\n    }\r\n\r\n    /**\r\n    * @notice see which ticket was selected as the winning ticket for the current prize draw\r\n    * @dev function used for unit tests only\r\n    * @return the winning ticket number\r\n    */\r\n    function getWinningTicket() external view onlyOwner returns (uint) {\r\n        return prizeDraws[currentID].winningTicket;\r\n    }\r\n\r\n    /**\r\n    * @notice see which player was owns the winning ticket for the current prize draw\r\n    * @dev function used for unit tests only\r\n    * @return the winning address\r\n    */\r\n    function getWinnerAddress() external view onlyOwner returns (address payable) {\r\n        return prizeDraws[currentID].winner;\r\n    }\r\n\r\n    /**\r\n    * @notice gets the total tokens spent by a specific player\r\n    * @param player the address of a player\r\n    * @dev function used for unit tests only\r\n    * @return the amount of tokens spent by the player\r\n    */\r\n    function getTokensSpentPerPlayer(address player) external view returns (uint) {\r\n        return prizeDraws[currentID].tokenSpentPerPlayer[player];\r\n    }\r\n}",
  "sourcePath": "C:\\Users\\Jake\\Desktop\\Final Project\\blockchain-developer-bootcamp-final-project\\contracts\\PrizeDraw.sol",
  "compiler": {
    "name": "solc",
    "version": "0.8.7+commit.e28d00a7.Emscripten.clang"
  },
  "schemaVersion": "3.4.3",
  "updatedAt": "2022-01-14T02:17:46.700Z",
  "networkType": "ethereum",
  "devdoc": {
    "author": "Jake O'Halloran",
    "details": "Ensure the contract address has sufficient LINK to allow for the winner to be selected",
    "kind": "dev",
    "methods": {
      "_transferOwnership(address)": {
        "params": {
          "newOwner": "The address to transfer ownership to."
        }
      },
      "buyTickets(uint256)": {
        "params": {
          "ticketAmount": "number of tickets to user is trying to buy"
        },
        "returns": {
          "_0": "returns true when tickets have been purchased succesfully"
        }
      },
      "constructor": {
        "params": {
          "tokenAddress": "The erc20 token used for the prize draws"
        }
      },
      "getPrevPrizeDraw()": {
        "details": "function used for unit tests only",
        "returns": {
          "_0": "the previous prize draws id"
        }
      },
      "getPreviousPrize()": {
        "returns": {
          "_0": "the amount of tokens won in the previous prize draw"
        }
      },
      "getPreviousWinner()": {
        "returns": {
          "_0": "the total tickets for the current draw"
        }
      },
      "getPrizeDrawCount()": {
        "details": "function used for unit tests only",
        "returns": {
          "_0": "the current prize draws id"
        }
      },
      "getPrizeDrawDate()": {
        "returns": {
          "_0": "the current draws date"
        }
      },
      "getPrizeDrawPlayers()": {
        "returns": {
          "_0": "the total players for the current draw"
        }
      },
      "getPrizeDrawTickets()": {
        "returns": {
          "_0": "the total tickets for the current draw"
        }
      },
      "getRandomNumber()": {
        "returns": {
          "requestId": "the id of the random number request"
        }
      },
      "getRemainingLINK()": {
        "returns": {
          "_0": "the link balance for this contract"
        }
      },
      "getTicketAddress(uint256)": {
        "details": "function used for unit tests only",
        "params": {
          "ticketNumber": "the tickets number"
        },
        "returns": {
          "_0": "the address of the ticket owner"
        }
      },
      "getTicketPrice()": {
        "returns": {
          "_0": "the current prize draws ticket price"
        }
      },
      "getTicketsPerPlayer(address)": {
        "params": {
          "player": "the address of a player"
        },
        "returns": {
          "_0": "the amount of tickets owned by the player"
        }
      },
      "getTokensSpentPerPlayer(address)": {
        "details": "function used for unit tests only",
        "params": {
          "player": "the address of a player"
        },
        "returns": {
          "_0": "the amount of tokens spent by the player"
        }
      },
      "getTotalPrize()": {
        "returns": {
          "_0": "newOwner The address to transfer ownership to."
        }
      },
      "getWinnerAddress()": {
        "details": "function used for unit tests only",
        "returns": {
          "_0": "the winning address"
        }
      },
      "getWinningTicket()": {
        "details": "function used for unit tests only",
        "returns": {
          "_0": "the winning ticket number"
        }
      },
      "owner()": {
        "details": "Returns the address of the current owner."
      },
      "pickWinnerTest()": {
        "details": "function used for unit tests only"
      },
      "renounceOwnership()": {
        "details": "Leaves the contract without owner. It will not be possible to call `onlyOwner` functions anymore. Can only be called by the current owner. NOTE: Renouncing ownership will leave the contract without an owner, thereby removing any functionality that is only available to the owner."
      },
      "saveDate(string)": {
        "params": {
          "date": "the date string"
        }
      },
      "setTicketPrice(uint256)": {
        "params": {
          "_ticketPrice": "the price, i.e how many tokens to purchase a ticket"
        }
      },
      "transferOwnership(address)": {
        "details": "Transfers ownership of the contract to a new account (`newOwner`). Can only be called by the current owner."
      }
    },
    "title": "A prize draw for ERC20 tokens",
    "version": 1
  },
  "userdoc": {
    "events": {
      "BuyEvent(address,uint256,uint256,uint256,bool)": {
        "notice": "Log when a ticket was bought for a draw"
      },
      "CancelEvent(uint256,uint256,uint256,uint256)": {
        "notice": "Log when a draw was canceled"
      },
      "NumberReceived(uint256)": {
        "notice": "Log what random number was received from Chainlink"
      },
      "WinnerEvent(address,uint256,uint256,uint256)": {
        "notice": "Log the results of a draw"
      }
    },
    "kind": "user",
    "methods": {
      "_transferOwnership(address)": {
        "notice": "Allows the current owner to transfer control of the contract to a newOwner."
      },
      "buyTickets(uint256)": {
        "notice": "receive tokens and assign tickets to the address"
      },
      "cancelPrizeDraw()": {
        "notice": "end the current prize draw and refund all players their tokens"
      },
      "createPrizeDraw()": {
        "notice": "create a new prize draw"
      },
      "currentState()": {
        "notice": "Log when a ticket was bought for a draw"
      },
      "getPrevPrizeDraw()": {
        "notice": "gets the id for the previous prize draw"
      },
      "getPreviousPrize()": {
        "notice": "gets the total amount of tokens the winner of the last prize draw received"
      },
      "getPreviousWinner()": {
        "notice": "gets the total number of tickets bought for the current prize draw"
      },
      "getPrizeDrawCount()": {
        "notice": "gets the id for the current prize draw"
      },
      "getPrizeDrawDate()": {
        "notice": "gets the date the current prize draw will be ended by the owner"
      },
      "getPrizeDrawPlayers()": {
        "notice": "gets the total number of players for the current prize draw"
      },
      "getPrizeDrawTickets()": {
        "notice": "gets the total number of tickets bought for the current prize draw"
      },
      "getRandomNumber()": {
        "notice": "Request a random number from chainlink"
      },
      "getRemainingLINK()": {
        "notice": "determine how much link is left in the contract"
      },
      "getTicketAddress(uint256)": {
        "notice": "see who owns a particular ticket for the current draw"
      },
      "getTicketPrice()": {
        "notice": "gets the current prize draws ticket price"
      },
      "getTicketsPerPlayer(address)": {
        "notice": "gets the total tickets purchased by a specific player"
      },
      "getTokensSpentPerPlayer(address)": {
        "notice": "gets the total tokens spent by a specific player"
      },
      "getTotalPrize()": {
        "notice": "shows everyone what they're playing for, the prize pool"
      },
      "getWinnerAddress()": {
        "notice": "see which player was owns the winning ticket for the current prize draw"
      },
      "getWinningTicket()": {
        "notice": "see which ticket was selected as the winning ticket for the current prize draw"
      },
      "pickWinner()": {
        "notice": "owner picks the winner of the current prize draw at random, the winner receives the prize pool tokens"
      },
      "pickWinnerTest()": {
        "notice": "pick a winner for the current prize draw, winner will always be the same"
      },
      "prizeDrawToken()": {
        "notice": "the ERC20 token used by the smart contract"
      },
      "saveDate(string)": {
        "notice": "set the date that the winner will be selected for the current prize draw"
      },
      "setTicketPrice(uint256)": {
        "notice": "set the ticket price for the current prize draw"
      },
      "startPrizeDraw()": {
        "notice": "start the current prize draw"
      },
      "withdrawLink()": {
        "notice": "a withdraw function to avoid locking your LINK in the contract"
      }
    },
    "notice": "You can use this contract to run a basic prize draw for your ERC20 token community",
    "version": 1
  }
}